[
    {
        "scope": "http://192.168.1.150:3889",
        "method": "POST",
        "path": "/",
        "body": {
            "method": "getblockchaininfo"
        },
        "status": 200,
        "response": {
            "result": {
                "chain": "main",
                "blocks": 187230,
                "headers": 187230,
                "bestblockhash": "ee2e416a235a5d14d40bb1eb5ba37c80b5dc373a6de7d6a8ddbaaf7c9a946622",
                "difficulty": 1649036.14632171,
                "mediantime": 1531143824,
                "verificationprogress": 0.9999973187731993,
                "chainwork": "000000000000000000000000000000000000000000000085e422dac9c1fb2801",
                "pruned": false,
                "softforks": [
                    {
                        "id": "bip34",
                        "version": 2,
                        "reject": {
                            "status": true
                        }
                    },
                    {
                        "id": "bip66",
                        "version": 3,
                        "reject": {
                            "status": true
                        }
                    },
                    {
                        "id": "bip65",
                        "version": 4,
                        "reject": {
                            "status": true
                        }
                    }
                ],
                "bip9_softforks": {
                    "csv": {
                        "status": "active",
                        "startTime": 0,
                        "timeout": 999999999999,
                        "since": 6048
                    },
                    "segwit": {
                        "status": "active",
                        "startTime": 0,
                        "timeout": 999999999999,
                        "since": 6048
                    }
                }
            },
            "error": null,
            "id": null
        },
        "rawHeaders": [
            "Content-Type",
            "application/json",
            "Date",
            "Mon, 09 Jul 2018 14:06:32 GMT",
            "Content-Length",
            "701",
            "Connection",
            "close"
        ]
    },
    {
        "scope": "http://192.168.1.150:3889",
        "method": "POST",
        "path": "/",
        "body": {
            "method": "getblockhash",
            "params": [
                1
            ]
        },
        "status": 200,
        "response": {
            "result": "0000d5dab5e76310ae640e9bcfa270c2eb23a1e5948bdf01fc7ed1f157110ab7",
            "error": null,
            "id": null
        },
        "rawHeaders": [
            "Content-Type",
            "application/json",
            "Date",
            "Mon, 09 Jul 2018 14:06:32 GMT",
            "Content-Length",
            "101",
            "Connection",
            "close"
        ]
    },
    {
        "scope": "http://192.168.1.150:3889",
        "method": "POST",
        "path": "/",
        "body": {
            "method": "getblockhash",
            "params": [
                187213
            ]
        },
        "status": 200,
        "response": {
            "result": "e46bc36d172bb52a6dfb45ececbaf8b5c2e2f502a6a1fdffd89cde9478b74580",
            "error": null,
            "id": null
        },
        "rawHeaders": [
            "Content-Type",
            "application/json",
            "Date",
            "Mon, 09 Jul 2018 14:06:32 GMT",
            "Content-Length",
            "101",
            "Connection",
            "close"
        ]
    },
    {
        "scope": "http://192.168.1.150:3889",
        "method": "POST",
        "path": "/",
        "body": {
            "method": "getblock",
            "params": [
                "e46bc36d172bb52a6dfb45ececbaf8b5c2e2f502a6a1fdffd89cde9478b74580",
                2
            ]
        },
        "status": 200,
        "response": {
            "result": {
                "hash": "e46bc36d172bb52a6dfb45ececbaf8b5c2e2f502a6a1fdffd89cde9478b74580",
                "confirmations": 18,
                "strippedsize": 2078,
                "size": 2114,
                "weight": 8348,
                "height": 187213,
                "version": 536870912,
                "versionHex": "20000000",
                "merkleroot": "f0f99b1e28c2a6efb73130b0d0f6fc9d086e05bc2731df8bb9f8056ea17694e3",
                "hashStateRoot": "70604ac9fa882d78ce2e3d76416d8f2dba4a9df66a9ec0c92705d5e88e8d1e88",
                "hashUTXORoot": "72cf95cfeb926fd180877be7e66bf1a3a32cd42e7394dcaa8925cf0708fccec0",
                "tx": [
                    {
                        "txid": "e652108943ca3fd8264c3b94a73b66b7e70fc52d4e3a439391266bd8180d79ba",
                        "hash": "f9de605756a5588dfdfb254e4c6425b1112a26b594c366911e18e4d02395e2b5",
                        "version": 2,
                        "size": 148,
                        "vsize": 121,
                        "locktime": 0,
                        "vin": [
                            {
                                "coinbase": "034ddb0200",
                                "sequence": 4294967295
                            }
                        ],
                        "vout": [
                            {
                                "value": 0,
                                "n": 0,
                                "scriptPubKey": {
                                    "asm": "",
                                    "hex": "",
                                    "type": "nonstandard"
                                }
                            },
                            {
                                "value": 0,
                                "n": 1,
                                "scriptPubKey": {
                                    "asm": "OP_RETURN aa21a9edd72924d5e5a14ab895d69cc7818c61d66bfcea39b1e148d6e2449131ac9cd211",
                                    "hex": "6a24aa21a9edd72924d5e5a14ab895d69cc7818c61d66bfcea39b1e148d6e2449131ac9cd211",
                                    "type": "nulldata"
                                }
                            }
                        ],
                        "hex": "020000000001010000000000000000000000000000000000000000000000000000000000000000ffffffff05034ddb0200ffffffff020000000000000000000000000000000000266a24aa21a9edd72924d5e5a14ab895d69cc7818c61d66bfcea39b1e148d6e2449131ac9cd2110120000000000000000000000000000000000000000000000000000000000000000000000000"
                    },
                    {
                        "txid": "86fa2a361533224869204c20f3558b168f8ed2cb641ac4bbd24cde526364dbef",
                        "hash": "86fa2a361533224869204c20f3558b168f8ed2cb641ac4bbd24cde526364dbef",
                        "version": 2,
                        "size": 516,
                        "vsize": 516,
                        "locktime": 0,
                        "vin": [
                            {
                                "txid": "ffbb83afa1a444fb244751b7dc980998e3c72f0bd4ff94ce6b9a4b35080ff0ed",
                                "vout": 1,
                                "scriptSig": {
                                    "asm": "304402206937b9253878e94071f66928475a1e73071c279a399b017aefa67ab11b98134d02206ca3dc635fd627104ee292a3cdaa7d9eba3754e77fb319c4bd6427230fd9bd22[ALL]",
                                    "hex": "47304402206937b9253878e94071f66928475a1e73071c279a399b017aefa67ab11b98134d02206ca3dc635fd627104ee292a3cdaa7d9eba3754e77fb319c4bd6427230fd9bd2201"
                                },
                                "sequence": 4294967295
                            }
                        ],
                        "vout": [
                            {
                                "value": 0,
                                "n": 0,
                                "scriptPubKey": {
                                    "asm": "",
                                    "hex": "",
                                    "type": "nonstandard"
                                }
                            },
                            {
                                "value": 191.60877729,
                                "n": 1,
                                "scriptPubKey": {
                                    "asm": "0229e864fdf41ec6c4a15f0fc56756ee4bfb27c7fc177f59f7f90b6f322716a0e3 OP_CHECKSIG",
                                    "hex": "210229e864fdf41ec6c4a15f0fc56756ee4bfb27c7fc177f59f7f90b6f322716a0e3ac",
                                    "reqSigs": 1,
                                    "type": "pubkey",
                                    "addresses": [
                                        "QPoVZqSCxtWkHgNt8jkipv6KNJUMmE7gRT"
                                    ]
                                }
                            },
                            {
                                "value": 0.41441777,
                                "n": 2,
                                "scriptPubKey": {
                                    "asm": "OP_DUP OP_HASH160 52ff95a250b868c9fec0ab90a5fcc44f300aff96 OP_EQUALVERIFY OP_CHECKSIG",
                                    "hex": "76a91452ff95a250b868c9fec0ab90a5fcc44f300aff9688ac",
                                    "reqSigs": 1,
                                    "type": "pubkeyhash",
                                    "addresses": [
                                        "QUAqhMN7fD71HAMgrsLsRw321M3UaVsvGY"
                                    ]
                                }
                            },
                            {
                                "value": 0.41441777,
                                "n": 3,
                                "scriptPubKey": {
                                    "asm": "OP_DUP OP_HASH160 50104f7b7c6b1acb48515062672b9a060861cac9 OP_EQUALVERIFY OP_CHECKSIG",
                                    "hex": "76a91450104f7b7c6b1acb48515062672b9a060861cac988ac",
                                    "reqSigs": 1,
                                    "type": "pubkeyhash",
                                    "addresses": [
                                        "QTuKhv9iMAKWH9Sn4gQXxfxc6Jzz6DV915"
                                    ]
                                }
                            },
                            {
                                "value": 0.41441777,
                                "n": 4,
                                "scriptPubKey": {
                                    "asm": "OP_DUP OP_HASH160 eb9349d2073d144166d9365e1fe3d87caf9ea094 OP_EQUALVERIFY OP_CHECKSIG",
                                    "hex": "76a914eb9349d2073d144166d9365e1fe3d87caf9ea09488ac",
                                    "reqSigs": 1,
                                    "type": "pubkeyhash",
                                    "addresses": [
                                        "Qi5bM9sY6RmTnnoogVJwhASpbSTXAuUotG"
                                    ]
                                }
                            },
                            {
                                "value": 0.41441777,
                                "n": 5,
                                "scriptPubKey": {
                                    "asm": "OP_DUP OP_HASH160 3b73a7396412e0465c5460fdc7701c230a823bf6 OP_EQUALVERIFY OP_CHECKSIG",
                                    "hex": "76a9143b73a7396412e0465c5460fdc7701c230a823bf688ac",
                                    "reqSigs": 1,
                                    "type": "pubkeyhash",
                                    "addresses": [
                                        "QS2LXLscB9aN1SRAiDQf19o2Jso6AUBeut"
                                    ]
                                }
                            },
                            {
                                "value": 0.41441777,
                                "n": 6,
                                "scriptPubKey": {
                                    "asm": "OP_DUP OP_HASH160 c7d14f5c8652a8747a0ef6aebb0da3205e437565 OP_EQUALVERIFY OP_CHECKSIG",
                                    "hex": "76a914c7d14f5c8652a8747a0ef6aebb0da3205e43756588ac",
                                    "reqSigs": 1,
                                    "type": "pubkeyhash",
                                    "addresses": [
                                        "QepXKb1t761cJkvjnzJTw2Tx9Zbjv2D9yH"
                                    ]
                                }
                            },
                            {
                                "value": 0.41441777,
                                "n": 7,
                                "scriptPubKey": {
                                    "asm": "OP_DUP OP_HASH160 2f4ae7010eabb56acead10cbe47a27959394ddcd OP_EQUALVERIFY OP_CHECKSIG",
                                    "hex": "76a9142f4ae7010eabb56acead10cbe47a27959394ddcd88ac",
                                    "reqSigs": 1,
                                    "type": "pubkeyhash",
                                    "addresses": [
                                        "QQv3bd34dbZYheStmczvdDfeSYVXy1NPhS"
                                    ]
                                }
                            },
                            {
                                "value": 0.41441777,
                                "n": 8,
                                "scriptPubKey": {
                                    "asm": "OP_DUP OP_HASH160 eaa83988f49e021b5db394794e79b06a718de782 OP_EQUALVERIFY OP_CHECKSIG",
                                    "hex": "76a914eaa83988f49e021b5db394794e79b06a718de78288ac",
                                    "reqSigs": 1,
                                    "type": "pubkeyhash",
                                    "addresses": [
                                        "QhzjkeWMCtmuWLvu6UYH7WqSsPQDFkVXHR"
                                    ]
                                }
                            },
                            {
                                "value": 0.41441777,
                                "n": 9,
                                "scriptPubKey": {
                                    "asm": "OP_DUP OP_HASH160 23158af7bb43843d05bab9210917b9063413a3ae OP_EQUALVERIFY OP_CHECKSIG",
                                    "hex": "76a91423158af7bb43843d05bab9210917b9063413a3ae88ac",
                                    "reqSigs": 1,
                                    "type": "pubkeyhash",
                                    "addresses": [
                                        "QPoVZqSCxtWkHgNt8jkipv6KNJUMmE7gRT"
                                    ]
                                }
                            },
                            {
                                "value": 0.41441777,
                                "n": 10,
                                "scriptPubKey": {
                                    "asm": "OP_DUP OP_HASH160 6a04073d3b09a063fb423c05fc3f33154729a9ee OP_EQUALVERIFY OP_CHECKSIG",
                                    "hex": "76a9146a04073d3b09a063fb423c05fc3f33154729a9ee88ac",
                                    "reqSigs": 1,
                                    "type": "pubkeyhash",
                                    "addresses": [
                                        "QWGYZXGCtancAVcCPsAoidrKBqJuB6v7Zr"
                                    ]
                                }
                            },
                            {
                                "value": 0.0792212,
                                "n": 11,
                                "scriptPubKey": {
                                    "asm": "OP_DUP OP_HASH160 f34a6736d5b06084e6dafd6e6ccfb662b6b08918 OP_EQUALVERIFY OP_CHECKSIG",
                                    "hex": "76a914f34a6736d5b06084e6dafd6e6ccfb662b6b0891888ac",
                                    "reqSigs": 1,
                                    "type": "pubkeyhash",
                                    "addresses": [
                                        "QinPSY7gtP1dbYWoE8eDAd6iWG6dF2s4mV"
                                    ]
                                }
                            }
                        ],
                        "hex": "0200000001edf00f08354b9a6bce94ffd40b2fc7e3980998dcb7514724fb44a4a1af83bbff010000004847304402206937b9253878e94071f66928475a1e73071c279a399b017aefa67ab11b98134d02206ca3dc635fd627104ee292a3cdaa7d9eba3754e77fb319c4bd6427230fd9bd2201ffffffff0c000000000000000000a1ca13760400000023210229e864fdf41ec6c4a15f0fc56756ee4bfb27c7fc177f59f7f90b6f322716a0e3acf1597802000000001976a91452ff95a250b868c9fec0ab90a5fcc44f300aff9688acf1597802000000001976a91450104f7b7c6b1acb48515062672b9a060861cac988acf1597802000000001976a914eb9349d2073d144166d9365e1fe3d87caf9ea09488acf1597802000000001976a9143b73a7396412e0465c5460fdc7701c230a823bf688acf1597802000000001976a914c7d14f5c8652a8747a0ef6aebb0da3205e43756588acf1597802000000001976a9142f4ae7010eabb56acead10cbe47a27959394ddcd88acf1597802000000001976a914eaa83988f49e021b5db394794e79b06a718de78288acf1597802000000001976a91423158af7bb43843d05bab9210917b9063413a3ae88acf1597802000000001976a9146a04073d3b09a063fb423c05fc3f33154729a9ee88acc8e17800000000001976a914f34a6736d5b06084e6dafd6e6ccfb662b6b0891888ac00000000"
                    },
                    {
                        "txid": "b326cf57b5e0301dea97a5bbed9fd34095ec13824b26ea7a29e80b238d3aa07b",
                        "hash": "b326cf57b5e0301dea97a5bbed9fd34095ec13824b26ea7a29e80b238d3aa07b",
                        "version": 2,
                        "size": 226,
                        "vsize": 226,
                        "locktime": 0,
                        "vin": [
                            {
                                "txid": "1440db7fb49791cad9c7bbb494954da7d8a6cb88d856c9dd59fe826f0a05de1f",
                                "vout": 0,
                                "scriptSig": {
                                    "asm": "3045022100e6674eae01588203f5c71230e07438d45586fb9723d511b3c05499e9e0ccebaa022013ff91d682d9b4fcd60826a009ff59a0d29b5cae419f26f04f65ef8c4b45f2ac[ALL] 0242cd7f612c5c2769566d27f0b49cd58c87c3c59599313abd533d4bc7b2364ea0",
                                    "hex": "483045022100e6674eae01588203f5c71230e07438d45586fb9723d511b3c05499e9e0ccebaa022013ff91d682d9b4fcd60826a009ff59a0d29b5cae419f26f04f65ef8c4b45f2ac01210242cd7f612c5c2769566d27f0b49cd58c87c3c59599313abd533d4bc7b2364ea0"
                                },
                                "sequence": 4294967295
                            }
                        ],
                        "vout": [
                            {
                                "value": 1086.4926,
                                "n": 0,
                                "scriptPubKey": {
                                    "asm": "OP_DUP OP_HASH160 876f13477e935ff998efaf3743e25c3fb2ec34dc OP_EQUALVERIFY OP_CHECKSIG",
                                    "hex": "76a914876f13477e935ff998efaf3743e25c3fb2ec34dc88ac",
                                    "reqSigs": 1,
                                    "type": "pubkeyhash",
                                    "addresses": [
                                        "QYx6PqtpygFURwHhM5Q7uq2QFKPCL3H6ya"
                                    ]
                                }
                            },
                            {
                                "value": 2.4974,
                                "n": 1,
                                "scriptPubKey": {
                                    "asm": "OP_DUP OP_HASH160 e9178e3e92f32b04b8f7e8667992576257d7a0f5 OP_EQUALVERIFY OP_CHECKSIG",
                                    "hex": "76a914e9178e3e92f32b04b8f7e8667992576257d7a0f588ac",
                                    "reqSigs": 1,
                                    "type": "pubkeyhash",
                                    "addresses": [
                                        "QhrTmfpTHwyQ1L2tsBHVuzKo8dR3T3hNJk"
                                    ]
                                }
                            }
                        ],
                        "hex": "02000000011fde050a6f82fe59ddc956d888cba6d8a74d9594b4bbc7d9ca9197b47fdb4014000000006b483045022100e6674eae01588203f5c71230e07438d45586fb9723d511b3c05499e9e0ccebaa022013ff91d682d9b4fcd60826a009ff59a0d29b5cae419f26f04f65ef8c4b45f2ac01210242cd7f612c5c2769566d27f0b49cd58c87c3c59599313abd533d4bc7b2364ea0ffffffff02e023004c190000001976a914876f13477e935ff998efaf3743e25c3fb2ec34dc88ace0bae20e000000001976a914e9178e3e92f32b04b8f7e8667992576257d7a0f588ac00000000"
                    },
                    {
                        "txid": "17157502ca5b35302f6b11d69db03646eda07cd355e88d5f563e5b2b6fbcbe66",
                        "hash": "17157502ca5b35302f6b11d69db03646eda07cd355e88d5f563e5b2b6fbcbe66",
                        "version": 2,
                        "size": 226,
                        "vsize": 226,
                        "locktime": 187127,
                        "vin": [
                            {
                                "txid": "57bbb3cb07fde4aab07464c0258b9619902f64c4e0365f1667ba7411bda18c2b",
                                "vout": 1,
                                "scriptSig": {
                                    "asm": "3045022100b3488483e803a2fc67d385c871258db1573ed74c4cf099924b1c8a364cf0ceb302202111e683b21b0d7a59ba6d48da6c0f61761be3770eaecc32f6c5412c6c3a8a1a[ALL] 027a5e479c81a3b82427aa3e1feb66787f88bf913186e8ea72f5d8f170b0a49b64",
                                    "hex": "483045022100b3488483e803a2fc67d385c871258db1573ed74c4cf099924b1c8a364cf0ceb302202111e683b21b0d7a59ba6d48da6c0f61761be3770eaecc32f6c5412c6c3a8a1a0121027a5e479c81a3b82427aa3e1feb66787f88bf913186e8ea72f5d8f170b0a49b64"
                                },
                                "sequence": 4294967294
                            }
                        ],
                        "vout": [
                            {
                                "value": 5.50666029,
                                "n": 0,
                                "scriptPubKey": {
                                    "asm": "OP_DUP OP_HASH160 aad9dd90e045ef3045dbf48ec06eb7cb49ab5635 OP_EQUALVERIFY OP_CHECKSIG",
                                    "hex": "76a914aad9dd90e045ef3045dbf48ec06eb7cb49ab563588ac",
                                    "reqSigs": 1,
                                    "type": "pubkeyhash",
                                    "addresses": [
                                        "QcBMyUCi28J2oNL9QjC9mVotyYn878Di7g"
                                    ]
                                }
                            },
                            {
                                "value": 4.4822,
                                "n": 1,
                                "scriptPubKey": {
                                    "asm": "OP_DUP OP_HASH160 7f0992e42f20ca949bc8ca13b79d5bea7f8eecc7 OP_EQUALVERIFY OP_CHECKSIG",
                                    "hex": "76a9147f0992e42f20ca949bc8ca13b79d5bea7f8eecc788ac",
                                    "reqSigs": 1,
                                    "type": "pubkeyhash",
                                    "addresses": [
                                        "QYBhPrr74NzQD4uvyg7jd4MUghUTjvComj"
                                    ]
                                }
                            }
                        ],
                        "hex": "02000000012b8ca1bd1174ba67165f36e0c4642f9019968b25c06474b0aae4fd07cbb3bb57010000006b483045022100b3488483e803a2fc67d385c871258db1573ed74c4cf099924b1c8a364cf0ceb302202111e683b21b0d7a59ba6d48da6c0f61761be3770eaecc32f6c5412c6c3a8a1a0121027a5e479c81a3b82427aa3e1feb66787f88bf913186e8ea72f5d8f170b0a49b64feffffff022d7fd220000000001976a914aad9dd90e045ef3045dbf48ec06eb7cb49ab563588ac604bb71a000000001976a9147f0992e42f20ca949bc8ca13b79d5bea7f8eecc788acf7da0200"
                    },
                    {
                        "txid": "deedfa184e9258c0e9e512d21a6e340e8b6aeadba1f144b5c1e55b32ce6631c0",
                        "hash": "deedfa184e9258c0e9e512d21a6e340e8b6aeadba1f144b5c1e55b32ce6631c0",
                        "version": 1,
                        "size": 298,
                        "vsize": 298,
                        "locktime": 0,
                        "vin": [
                            {
                                "txid": "800a1dc9a154fc32ec392fcc8a56dbc4de8c28054806d2ac14c90cb44e49c299",
                                "vout": 1,
                                "scriptSig": {
                                    "asm": "30440220322594237706221a7aca3109a77c46048391b98ad5b2a7c46ba35d81af1c617902203ba6e8b1cb677e7c5f391b7a378b6295243097a0f5d95f7c18f323ed0f29ee2b[ALL] 0239aa7905a2cb248d28f200c186ac3124b6434f4826947b434473fb3593941f6f",
                                    "hex": "4730440220322594237706221a7aca3109a77c46048391b98ad5b2a7c46ba35d81af1c617902203ba6e8b1cb677e7c5f391b7a378b6295243097a0f5d95f7c18f323ed0f29ee2b01210239aa7905a2cb248d28f200c186ac3124b6434f4826947b434473fb3593941f6f"
                                },
                                "sequence": 4294967295
                            }
                        ],
                        "vout": [
                            {
                                "value": 0,
                                "n": 0,
                                "scriptPubKey": {
                                    "asm": "4 250000 40 a9059cbb000000000000000000000000f39d34c92dda50bf892e9f8c32aad0742248bd3c00000000000000000000000000000000000000000000000000004564fa657800 72e531e37c31ecbe336208fd66e93b48df3af420 OP_CALL",
                                    "hex": "540390d003012844a9059cbb000000000000000000000000f39d34c92dda50bf892e9f8c32aad0742248bd3c00000000000000000000000000000000000000000000000000004564fa6578001472e531e37c31ecbe336208fd66e93b48df3af420c2",
                                    "type": "call"
                                }
                            },
                            {
                                "value": 0.7773812,
                                "n": 1,
                                "scriptPubKey": {
                                    "asm": "OP_DUP OP_HASH160 549e58422a1aa37e0479e7e5eb42e006c10d5f05 OP_EQUALVERIFY OP_CHECKSIG",
                                    "hex": "76a914549e58422a1aa37e0479e7e5eb42e006c10d5f0588ac",
                                    "reqSigs": 1,
                                    "type": "pubkeyhash",
                                    "addresses": [
                                        "QUKQZQ7tfARczMHZafpjsKvYRBkKGCgccR"
                                    ]
                                }
                            }
                        ],
                        "hex": "010000000199c2494eb40cc914acd2064805288cdec4db568acc2f39ec32fc54a1c91d0a80010000006a4730440220322594237706221a7aca3109a77c46048391b98ad5b2a7c46ba35d81af1c617902203ba6e8b1cb677e7c5f391b7a378b6295243097a0f5d95f7c18f323ed0f29ee2b01210239aa7905a2cb248d28f200c186ac3124b6434f4826947b434473fb3593941f6fffffffff02000000000000000062540390d003012844a9059cbb000000000000000000000000f39d34c92dda50bf892e9f8c32aad0742248bd3c00000000000000000000000000000000000000000000000000004564fa6578001472e531e37c31ecbe336208fd66e93b48df3af420c28830a204000000001976a914549e58422a1aa37e0479e7e5eb42e006c10d5f0588ac00000000"
                    },
                    {
                        "txid": "2c12b587dcca02007e355706b65677aed8ddbace6a6b10f3ea89f9037fdf13e2",
                        "hash": "2c12b587dcca02007e355706b65677aed8ddbace6a6b10f3ea89f9037fdf13e2",
                        "version": 2,
                        "size": 448,
                        "vsize": 448,
                        "locktime": 187212,
                        "vin": [
                            {
                                "txid": "47625c3e7dfafa22c4cd87433840ea3a559465a13da397f4a0e274b2a6e57378",
                                "vout": 1,
                                "scriptSig": {
                                    "asm": "3045022100e1a20f10162432f878cbb60cb41d7f9f289271d43d631dafde1dc9a72d7c492a022040ec5c28af7acda36960ff80963b051091d6bd5f4f86767bc6d866baee95ccf1[ALL] 03ebcb0192a4954c68876f36f1e85a0f79d44a2c4c288cfd60025347c29b103abf",
                                    "hex": "483045022100e1a20f10162432f878cbb60cb41d7f9f289271d43d631dafde1dc9a72d7c492a022040ec5c28af7acda36960ff80963b051091d6bd5f4f86767bc6d866baee95ccf1012103ebcb0192a4954c68876f36f1e85a0f79d44a2c4c288cfd60025347c29b103abf"
                                },
                                "sequence": 4294967294
                            },
                            {
                                "txid": "b093da12cf22c035b16fb2c86da63b3dd4ef43e2c0ea5c2e8c262664c5743486",
                                "vout": 15,
                                "scriptSig": {
                                    "asm": "3045022100ad8f8abbc671da050480577f6a541a6b4ee4302acb939116f5851b0ac8c718a20220098e4546f13b4027058862f7485fc2d730267af00d37ad5cc2899475b317bc78[ALL] 03ebcb0192a4954c68876f36f1e85a0f79d44a2c4c288cfd60025347c29b103abf",
                                    "hex": "483045022100ad8f8abbc671da050480577f6a541a6b4ee4302acb939116f5851b0ac8c718a20220098e4546f13b4027058862f7485fc2d730267af00d37ad5cc2899475b317bc78012103ebcb0192a4954c68876f36f1e85a0f79d44a2c4c288cfd60025347c29b103abf"
                                },
                                "sequence": 4294967294
                            }
                        ],
                        "vout": [
                            {
                                "value": 0,
                                "n": 0,
                                "scriptPubKey": {
                                    "asm": "4 250000 40 a9059cbb000000000000000000000000d0aae4a0a450af36bb3b80726637e5a4c8511f59000000000000000000000000000000000000000000000000000001b23aa99a00 fe59cbc1704e89a698571413a81f0de9d8f00c69 OP_CALL",
                                    "hex": "01040390d003012844a9059cbb000000000000000000000000d0aae4a0a450af36bb3b80726637e5a4c8511f59000000000000000000000000000000000000000000000000000001b23aa99a0014fe59cbc1704e89a698571413a81f0de9d8f00c69c2",
                                    "type": "call"
                                }
                            },
                            {
                                "value": 0.02198083,
                                "n": 1,
                                "scriptPubKey": {
                                    "asm": "OP_DUP OP_HASH160 f34a6736d5b06084e6dafd6e6ccfb662b6b08918 OP_EQUALVERIFY OP_CHECKSIG",
                                    "hex": "76a914f34a6736d5b06084e6dafd6e6ccfb662b6b0891888ac",
                                    "reqSigs": 1,
                                    "type": "pubkeyhash",
                                    "addresses": [
                                        "QinPSY7gtP1dbYWoE8eDAd6iWG6dF2s4mV"
                                    ]
                                }
                            }
                        ],
                        "hex": "02000000027873e5a6b274e2a0f497a33da16594553aea40384387cdc422fafa7d3e5c6247010000006b483045022100e1a20f10162432f878cbb60cb41d7f9f289271d43d631dafde1dc9a72d7c492a022040ec5c28af7acda36960ff80963b051091d6bd5f4f86767bc6d866baee95ccf1012103ebcb0192a4954c68876f36f1e85a0f79d44a2c4c288cfd60025347c29b103abffeffffff863474c56426268c2e5ceac0e243efd43d3ba66dc8b26fb135c022cf12da93b00f0000006b483045022100ad8f8abbc671da050480577f6a541a6b4ee4302acb939116f5851b0ac8c718a20220098e4546f13b4027058862f7485fc2d730267af00d37ad5cc2899475b317bc78012103ebcb0192a4954c68876f36f1e85a0f79d44a2c4c288cfd60025347c29b103abffeffffff0200000000000000006301040390d003012844a9059cbb000000000000000000000000d0aae4a0a450af36bb3b80726637e5a4c8511f59000000000000000000000000000000000000000000000000000001b23aa99a0014fe59cbc1704e89a698571413a81f0de9d8f00c69c2438a2100000000001976a914f34a6736d5b06084e6dafd6e6ccfb662b6b0891888ac4cdb0200"
                    }
                ],
                "time": 1531142224,
                "mediantime": 1531141440,
                "nonce": 0,
                "bits": "1a04221f",
                "difficulty": 4058988.886403154,
                "chainwork": "000000000000000000000000000000000000000000000085e0946fc69bf5a70b",
                "previousblockhash": "cbc3d5330a70e4380dd15c7d72375f2bf73c8bf21bef0bae58ce392346351cf7",
                "nextblockhash": "13d92f7da4c2659f566bbc59ea2714191e738a8f4a7b2aa87a5651b54f99c1ae",
                "flags": "proof-of-stake",
                "proofhash": "00000eff31b0c9ce65bbc663d391c28939cc515fb2c4b64ba6aa0c0a7cf4ca7c",
                "modifier": "5f6bfe447932cbe9fb277f42aeb437aada0d14e71d75367850aad00b4abeaafa",
                "signature": "304402204a3df16a88f50fcd9eb8ff9768af2f0fc280ce055733ee230113cff6fc8327620220714c8456a2c37893397f38b012b99ca922ab1154ebee556719eb1780c68432b5"
            },
            "error": null,
            "id": null
        },
        "rawHeaders": [
            "Content-Type",
            "application/json",
            "Date",
            "Mon, 09 Jul 2018 14:06:32 GMT",
            "Content-Length",
            "15680",
            "Connection",
            "close"
        ]
    }
]